{
  "contractName": "VotingSystem",
  "abi": [
    {
      "anonymous": false,
      "inputs": [
        {
          "indexed": true,
          "internalType": "uint256",
          "name": "CandidateId",
          "type": "uint256"
        }
      ],
      "name": "votedEvent",
      "type": "event"
    },
    {
      "inputs": [
        {
          "internalType": "uint256",
          "name": "",
          "type": "uint256"
        }
      ],
      "name": "Candidates",
      "outputs": [
        {
          "internalType": "uint256",
          "name": "voteCount",
          "type": "uint256"
        }
      ],
      "stateMutability": "view",
      "type": "function",
      "constant": true
    },
    {
      "inputs": [],
      "name": "CandidatesCount",
      "outputs": [
        {
          "internalType": "uint256",
          "name": "",
          "type": "uint256"
        }
      ],
      "stateMutability": "view",
      "type": "function",
      "constant": true
    },
    {
      "inputs": [
        {
          "internalType": "address",
          "name": "",
          "type": "address"
        }
      ],
      "name": "voters",
      "outputs": [
        {
          "internalType": "bool",
          "name": "hasVoted",
          "type": "bool"
        }
      ],
      "stateMutability": "view",
      "type": "function",
      "constant": true
    },
    {
      "inputs": [
        {
          "internalType": "uint256[]",
          "name": "_CandidateIds",
          "type": "uint256[]"
        },
        {
          "internalType": "uint256",
          "name": "_CandidatesCount",
          "type": "uint256"
        }
      ],
      "name": "addCandidates",
      "outputs": [],
      "stateMutability": "nonpayable",
      "type": "function"
    },
    {
      "inputs": [
        {
          "internalType": "uint256",
          "name": "_CandidateId",
          "type": "uint256"
        }
      ],
      "name": "castVote",
      "outputs": [],
      "stateMutability": "nonpayable",
      "type": "function"
    },
    {
      "inputs": [
        {
          "internalType": "uint256",
          "name": "_CandidateId",
          "type": "uint256"
        }
      ],
      "name": "getCandidateVoteCount",
      "outputs": [
        {
          "internalType": "uint256",
          "name": "",
          "type": "uint256"
        }
      ],
      "stateMutability": "view",
      "type": "function",
      "constant": true
    }
  ],
  "bytecode": "0x608060405234801561001057600080fd5b50610817806100206000396000f3fe608060405234801561001057600080fd5b50600436106100625760003560e01c8063290e9212146100675780633eb76b9c14610097578063a3ec138d146100b3578063b315c597146100e3578063b3efbf1414610113578063c0ce8ae31461012f575b600080fd5b610081600480360381019061007c91906103bd565b61014d565b60405161008e91906103f9565b60405180910390f35b6100b160048036038101906100ac91906103bd565b61016b565b005b6100cd60048036038101906100c89190610472565b6102b0565b6040516100da91906104ba565b60405180910390f35b6100fd60048036038101906100f891906103bd565b6102db565b60405161010a91906103f9565b60405180910390f35b61012d6004803603810190610128919061062e565b6102fb565b005b61013761036d565b60405161014491906103f9565b60405180910390f35b60016020528060005260406000206000915090508060000154905081565b6000803373ffffffffffffffffffffffffffffffffffffffff1673ffffffffffffffffffffffffffffffffffffffff16815260200190815260200160002060000160009054906101000a900460ff16156101fa576040517f08c379a00000000000000000000000000000000000000000000000000000000081526004016101f1906106e7565b60405180910390fd5b60016000803373ffffffffffffffffffffffffffffffffffffffff1673ffffffffffffffffffffffffffffffffffffffff16815260200190815260200160002060000160006101000a81548160ff02191690831515021790555060016000828152602001908152602001600020600001600081548092919061027b90610736565b9190505550807ffff3c900d938d21d0990d786e819f29b8d05c1ef587b462b939609625b684b1660405160405180910390a250565b60006020528060005260406000206000915090508060000160009054906101000a900460ff16905081565b600060016000838152602001908152602001600020600001549050919050565b806002600082825461030d919061077e565b9250508190555060005b8181101561036857600060016000858481518110610338576103376107b2565b5b6020026020010151815260200190815260200160002060000181905550808061036090610736565b915050610317565b505050565b60025481565b6000604051905090565b600080fd5b600080fd5b6000819050919050565b61039a81610387565b81146103a557600080fd5b50565b6000813590506103b781610391565b92915050565b6000602082840312156103d3576103d261037d565b5b60006103e1848285016103a8565b91505092915050565b6103f381610387565b82525050565b600060208201905061040e60008301846103ea565b92915050565b600073ffffffffffffffffffffffffffffffffffffffff82169050919050565b600061043f82610414565b9050919050565b61044f81610434565b811461045a57600080fd5b50565b60008135905061046c81610446565b92915050565b6000602082840312156104885761048761037d565b5b60006104968482850161045d565b91505092915050565b60008115159050919050565b6104b48161049f565b82525050565b60006020820190506104cf60008301846104ab565b92915050565b600080fd5b6000601f19601f8301169050919050565b7f4e487b7100000000000000000000000000000000000000000000000000000000600052604160045260246000fd5b610523826104da565b810181811067ffffffffffffffff82111715610542576105416104eb565b5b80604052505050565b6000610555610373565b9050610561828261051a565b919050565b600067ffffffffffffffff821115610581576105806104eb565b5b602082029050602081019050919050565b600080fd5b60006105aa6105a584610566565b61054b565b905080838252602082019050602084028301858111156105cd576105cc610592565b5b835b818110156105f657806105e288826103a8565b8452602084019350506020810190506105cf565b5050509392505050565b600082601f830112610615576106146104d5565b5b8135610625848260208601610597565b91505092915050565b600080604083850312156106455761064461037d565b5b600083013567ffffffffffffffff81111561066357610662610382565b5b61066f85828601610600565b9250506020610680858286016103a8565b9150509250929050565b600082825260208201905092915050565b7f596f75206861766520616c726561647920766f7465642e000000000000000000600082015250565b60006106d160178361068a565b91506106dc8261069b565b602082019050919050565b60006020820190508181036000830152610700816106c4565b9050919050565b7f4e487b7100000000000000000000000000000000000000000000000000000000600052601160045260246000fd5b600061074182610387565b91507fffffffffffffffffffffffffffffffffffffffffffffffffffffffffffffffff820361077357610772610707565b5b600182019050919050565b600061078982610387565b915061079483610387565b92508282019050808211156107ac576107ab610707565b5b92915050565b7f4e487b7100000000000000000000000000000000000000000000000000000000600052603260045260246000fdfea264697066735822122080a7fb80b66a4d9167f0bb0dff1ba109f5259794e81c9b0acd9e81fb539db5eb64736f6c63430008130033",
  "immutableReferences": {},
  "source": "// SPDX-License-Identifier: MIT\r\npragma solidity ^0.8.0;\r\n\r\ncontract VotingSystem {\r\n    struct Candidate {\r\n        uint voteCount;\r\n    }\r\n\r\n    struct Voter {\r\n        bool hasVoted;\r\n    }\r\n\r\n    mapping(address => Voter) public voters;\r\n    mapping(uint => Candidate) public Candidates;\r\n    uint public CandidatesCount;\r\n\r\n    event votedEvent(\r\n        uint indexed CandidateId\r\n    );\r\n\r\n    function addCandidates(uint[] memory _CandidateIds, uint _CandidatesCount) public {\r\n        CandidatesCount+=_CandidatesCount;\r\n            for (uint i=0; i <_CandidatesCount; i++) {\r\n                Candidates[_CandidateIds[i]].voteCount = 0;\r\n            }\r\n    }\r\n\r\n    function castVote(uint _CandidateId) public{\r\n        require(!voters[msg.sender].hasVoted, \"You have already voted.\");\r\n\r\n        voters[msg.sender].hasVoted = true;\r\n        Candidates[_CandidateId].voteCount++;\r\n\r\n        emit votedEvent(_CandidateId);\r\n    }\r\n\r\n    function getCandidateVoteCount(uint _CandidateId) public view returns (uint) {\r\n        return Candidates[_CandidateId].voteCount;\r\n    }\r\n}",
  "sourcePath": "C:\\xampp\\htdocs\\election\\contracts\\VotingSystem.sol",
  "compiler": {
    "name": "solc",
    "version": "0.8.19+commit.7dd6d404.Emscripten.clang"
  },
  "schemaVersion": "3.4.16",
  "updatedAt": "2024-07-01T10:07:26.411Z",
  "networkType": "ethereum",
  "devdoc": {
    "kind": "dev",
    "methods": {},
    "version": 1
  },
  "userdoc": {
    "kind": "user",
    "methods": {},
    "version": 1
  }
}